:100000006F10C05313000000130000001300000025
:100010001300000013000000130000001300000094
:100020001300000013000000130000001300000084
:08003000130000007300100032
:100038000000000000000000EC050000F0050000D2
:100048000000000082140000000000000000000012
:100058008414000086140000000000000000000066
:1000680088140000000000008A140000000000004E
:100078008C1400008E1400009014000092140000EC
:100088009414000096140000981400009A140000BC
:100098009C14000020130000A0140000A21400000B
:1000A800A4140000A6140000A8140000AA1400005C
:1000B800AC140000AE140000B0140000B21400002C
:1000C800B4140000B6140000B8140000BA140000FC
:1000D800BC140000BE140000C0140000C2140000CC
:1000E800C4140000C6140000C8140000CA1400009C
:1000F800CC140000CE140000D0140000D21400006C
:10010800D4140000D6140000D8140000DA1400003B
:1001180052130000DE140000E0140000E214000096
:10012800E4140000E6140000E8140000EA140000DB
:10013800EC140000EE140000F0140000F2140000AB
:10014800F4140000F6140000F8140000FA1400007B
:10015800FC140000FE140000001500000215000049
:100168000415000006150000081500000A15000017
:100178000C1500000E1500001015000012150000E7
:100188001415000016150000181500001A150000B7
:100198001C1500001E150000201500002215000087
:1001A8002415000026150000281500002A15000057
:1001B8002C1500002E150000301500003215000027
:1001C8003415000036150000381500003A150000F7
:1001D8000000000000000000000000000000000017
:1001E8000000000000000000000000000000000007
:0801F8000000000000000000FF
:10020000397101436EC619A0397141536AC866CA73
:1002100062CC5ECE19A0397101535AD056D252D455
:100220004ED64AD826DA22DC06DE330161408282CD
:1002300041114AC026C222C406C68282B24D410183
:10024000024D924C224CB24B4101024B924A224A3F
:10025000B2494101024992442244B24041018280A4
:100260003D432A876373C3029377F700BDEFADE583
:10027000937606FF3D8ABA960CC34CC30CC74CC795
:100280004107E36BD7FE11E28280B306C3408A06C2
:100290009702000096966780A6002307B700A30682
:1002A000B7002306B700A305B7002305B700A304D2
:1002B000B7002304B700A303B7002303B700A302CA
:1002C000B7002302B700A301B7002301B700A300C2
:1002D000B7002300B700828093F5F50F9396850051
:1002E000D58D93960501D58D61B79396270097021A
:1002F000000096968682E78086FA9680C1171D8F49
:100300003E96E374C3F8A5B7EFF29FF237140140AD
:1003100013050440014693050040EF10A06B85656E
:1003200001469385058013050440EF10A06A1DB7B0
:10033000EFF21FF0133615003715014089451305FC
:100340000580EF10206939B7EFF29FEE8547630C07
:10035000F50001C989476303F5028D476302F5047F
:10036000D5BD5D37F5BF0546371401409305004004
:1003700013050440EF100066054619A83714014024
:1003800005469305004013050440EF10A0640146A4
:1003900085659385058013050440EF10A063C9B7F8
:1003A0000146D9B7EFF2DFE8930710033284630503
:1003B000F5008547639DF502813F2285EF10303DB2
:1003C0000545BD372285EF10903C0545B53F228598
:1003D000EF10F03B09458D3F2285EF10503B014562
:1003E000813F2285EF10B03A0545B93FA9A0930798
:1003F00020036305F50089476392F50231372285B2
:10040000EF10F03805452D372285EF10503805459F
:10041000253F2285EF10B0370D4575BF93071004B7
:10042000631CF500B7070020938707078A2313355D
:1004300015008AA3F53D39BD930720046314F50028
:10044000E135D5BF93073004E300F5FA9307400484
:100450006314F500094551BF93075004E31DF5FCF3
:100460000D4561B7EFF2DFDC3725014001468565B8
:1004700013050580EF10005637150140054693051A
:10048000001013050540EF10E054E9B3EFF25FDA16
:10049000372501400546856513050580EF1080531B
:1004A0003715014001469305001013050540EF1074
:1004B00060524DB3EFF2DFD72A84C93F2285EF1097
:1004C000102DB72401401385048001468965EF1083
:1004D00060500146916513850480EF10A04F22857E
:1004E000EF10F02A4137BDB3EFF29FD42A84793F51
:1004F0002285EF10D029B7240140138504800146DE
:100500008965EF10204D0546916513850480EF1035
:10051000604C2285EF10B027B1372DBBEFF25FD1D1
:100520002A84AD372285EF109026B7240140138529
:10053000048005468965EF10E04901469165138501
:100540000480EF1020492285EF107024213F19B359
:10055000EFF21FCE2A841D3F2285EF105023B724CF
:1005600001401385048005468965EF10A0460546C5
:10057000916513850480EF10E0452285EF1030214E
:10058000D535C9B9EFF2DFCA2A8637150140930580
:10059000002013050540EF10E0436DB9EFF25FC98D
:1005A000930760046316F5001305401F21375DB102
:1005B000930720046316F5001305401F3537C5BFA8
:1005C0009307C0046316F5001305401F5137C5B7E4
:1005D000930720056316F5001305401F8137C1BF3F
:1005E00093073005E315F5FC5535D1B7730020307E
:1005F00001A013578500B707026098A31375F50F84
:1006000088A38280B70702609C23411193F7F70FFC
:10061000DC87888741018280EFF2FFBF19711306E2
:10062000C0038145C800130AC10002C002C202C44F
:1006300005397146814552852531930981027146FC
:1006400081454E853139854513050010EF10005E58
:10065000854513058006EF10405FB7140140F17720
:100660000D446149938737038A85138504407C8054
:100670004AC422C2EF10E0283725014093070078D2
:100680008A85130505807C804AC422C2EF1060274A
:1006900085678A85138504407C804AC422C2EF1096
:1006A0004026930700087C808A85C1471385044053
:1006B0003EC422C2EF10E0249305000813850440D5
:1006C000EF10003185473EC6BD473ECA8567BED4A0
:1006D000C8009167BED822D8D2DCCEDE02C802CCD8
:1006E00002CE02D002D202D402D602DA02DC02DE4C
:1006F00082C082C282C482C682C882CA82CE82CCB2
:1007000082D082D282D682DAEF102012854501454E
:10071000EF10401D096115BEEFF29FB179713734BA
:100720000140E884EC82130504C04C0832C6231D46
:100730000100231B0100EF1000553246930700060D
:100740003ED00C109147130504C02312F10223136D
:10075000C10223150102EF10A05D130504C08545F9
:10076000EF106069130504C08145EF10C06B1305DD
:1007700004C08545EF1080698545130504C0EF105E
:1007800000664561C1BCEFF2BFAA05654111854510
:1007900013058580EF10604B91677C82371501400F
:1007A000E1474C003EC6130505C08D473EC4EF101F
:1007B000401513054006EF10807D130620039305B6
:1007C000F00813054006893F410169B42394A182D2
:1007D000B70700202399B7068280B7070260130786
:1007E000A002A38FE7FE1357850098A31375F50F9A
:1007F00088A31357860098A31376F60F90A31307C8
:10080000B002A38FE7FE13D7850098A393F5F50FE9
:100810008CA313D7860098A393F6F60F94A313071F
:10082000C002A38FE7FE8280EFF29FA09306F00E36
:10083000935485001374F50F1306F00E814501459E
:10084000693F1307000FB70602609307000FFD17FB
:1008500084A2C20780A2C183FDFB7D1742074183AA
:100860006DF76FF03F9FEFF2BF9C313F7533370458
:1008700002609147A30FF4FE71336933613393141F
:100880000501C180A204C204B53BC180458D93150A
:10089000050137750000C18113054597EF10E07D14
:1008A00013052003EF10A06E93076003A30FF4FE5F
:1008B000230004001306A003A30FC4FE95471CA049
:1008C000930720FBA30FF4FEB14614A014A023004D
:1008D0000400930730031CA01CA0130770FBA30F98
:1008E000E4FE230004001307B0FBA30FE4FE130390
:1008F000F00323006400130700FCA30FE4FE1307BA
:10090000C00218A0130720FCA30FE4FE054718A09F
:10091000130730FCA30FE4FEB548230014011307AE
:1009200040FCA30FE4FE1307000218A0130760FCAD
:10093000A30FE4FE0D4718A0930500FDA30FB4FE1E
:10094000930540FA0CA0930510FA0CA08155A30F53
:10095000B4FE41582300040118A0A5450CA018A01E
:10096000414518A09305D00208A00CA0130730043D
:1009700018A0230064001CA023001401394718A00C
:100980009304900204A093082003230014018558C7
:10099000A30F14FF2300040114A008A018A018A09E
:1009A000294718A00CA01CA0930750041CA010A05D
:1009B000D1471CA0E5471CA0930710031CA0930778
:1009C00070031CA093071002A30FF4FEC547A30FEA
:1009D000F4FE13054006EF10805B0145B135371575
:1009E00001409165130505C0EF00507EA30F94FEF2
:1009F0006FF05F8693D816001308000FB3081841F4
:100A000063E2A8163308D840636EB814EFF2CFFF44
:100A1000130406FE41461374F40F6390C6069386D2
:100A2000F50013067500C2064206C1824182116AB2
:100A30006D3312048149130A4AA7B70B0020C14A3B
:100A4000B3073401D29703C90700A1449317890162
:100A5000E18763D1070203D52B07FD14060993F440
:100A6000F40F413E1379F90FF5F08509E39A59FD2A
:100A70006FF00FFD03D58182CDB76146639BC6063B
:100A8000938675011306B500C2064206C1824182F3
:100A9000A933930700183304F402116A8144130B3D
:100AA0000003130A4A05370C00200D8093F7F40F5A
:100AB000E38064FD330794005297858B83490700D8
:100AC000914A91E3A14A014993978901E18763DF44
:100AD000070003552C07050986091379F90F113E04
:100AE00093F9F90FE3922AFF8504C9B703D58182F0
:100AF000DDB7130600026390C6069386F501130660
:100B0000F500C2064206C1824182156AF9311A0413
:100B10008149130A4A1FB70B0020930A0004B387C8
:100B20008900D29703C90700A14493178901E1877F
:100B300063D0070203D52B07FD14060993F4F40FC5
:100B40004D3C1379F90FF5F08509E39A59FD0DB77E
:100B500003D58182D5B73775000013050598EF10CE
:100B6000C05139B78280557126DB4AD94ED7AA8445
:100B7000B2892E89130600088145080822DDBAC112
:100B8000BEC306DF52D556D35AD15ECF3684C2C516
:100B9000C6C7EFF0EFEC13F779FFC147630DF7001D
:100BA000930700026389F90037750000CE851305AD
:100BB000C59CEF10804C94012286930540060808DE
:100BC00036C6EF10005513D719009307000F131BFB
:100BD0000701C16AB38BE740135B0B010008338A3E
:100BE0003741938A0A801C2081EFFA506A54DA5404
:100BF0004A59BA592A5A9A5A0A5BFA4B6961828051
:100C000063F79B004E9942091359090181446376A9
:100C10002A01568511390149814410202685DA942C
:100C2000CE86CA85C204F933C18005046DBFEFF2D8
:100C30002FE00111854513050008EF10E0028545FE
:100C40004145EF10800091477C828D473EC44C00A7
:100C5000E147371501403EC6EF00B04AA1477C820C
:100C60004C0093078004371501403EC6EF007049E1
:100C7000F16737240040938707203EC80C08B70768
:100C80000C00130504C03ECC02CA231E0100EF1065
:100C9000E01A3705024085451305054AEF00F02CA0
:100CA0008545130504C0EF10202505616FF08FDA2C
:100CB000EFF20FD8797185450945EF003077370499
:100CC000024013050449EF0010109387C1803EC411
:100CD000C1473EC6B7240040930700084C009384E8
:100CE00044C03ECC130504498D673ED426C202C8D9
:100CF00002CA02CE02D002D202D6EF009023130520
:100D0000044AEF00500C938701843EC493070040CF
:100D10003EC84C00930700021305044A26C23ED287
:100D200002C6EF00102145616FF0CFD2EFF24FD035
:100D3000370402402A8913050449AE84EF00702469
:100D400015E9370500200905EF0030241305044993
:100D50008145EF0090211304044923262401A68530
:100D60002285EF00D02122858545EF001020054522
:100D70006FF04FCE0145EDBFEFF28FCB8145B3074A
:100D8000B5008387070081E755376FF0AFCC850545
:100D9000C205C181EDB7EFF2AFC92A843705024021
:100DA00041111305054A2EC6EF00B01D1307004080
:100DB000098F83D6C1824207418301456383E602DE
:100DC000B2459387C1820145138601849308F03FA1
:100DD00096236388E600131805011358080163651C
:100DE000B80041016FF00FC7B29694223308A400F7
:100DF0002300D80096238506C206C18263E5D80089
:100E000096A30505F1B723900700E5BFEFF24FC2A7
:100E1000370502401305054AEF00B016930700405E
:100E20003385A74003D7C182420541816367E5004E
:100E3000198D420541816FF0EFC1998F3E95D5BF65
:100E4000397132D42A862ED236D6930540065410F4
:100E5000138501C406CE3AD83EDA42DC46DE36C6F9
:100E6000EF10202BF24021618280EFF26FBCB714AB
:100E700001400144938404C085452685EF00703409
:100E800001E522856FF00FBD29450504EF10C00C68
:100E9000E5B7EFF2EFB9D13F9307C5F411E1814710
:100EA0003E856FF02FBBEFF2AFB837150140894593
:100EB000130505C0EF00F0303335A00005056FF0D5
:100EC0006FB9EFF2EFB6797185451305100602CAC6
:100ED00002CC02CE02D002D202D402D602C602C88E
:100EE000EF00B05637150140A147130480044C08A9
:100EF00013050540FC8222CEEF00B02037250140CB
:100F0000E1774C0813050580FC8222CEEF00701FAC
:100F10008D450D45EF00B02C0544A14708103ED08B
:100F20003ED422D602D2EF001009930790218944C3
:100F300068007C86448722C8EF00902DBD4511458E
:100F4000EF00F029A1673ED00810B1473ED422D669
:100F500002D2EF0050069307802368007C86448706
:100F600022C8EF00F02A45616FF0CFAEEFF24FAC30
:100F70004111854511453714014002C202C402C621
:100F8000EF00B04C8D44414989474C001305048063
:100F90007C824AC626C4EF00D01685452145EF0065
:100FA000D04A91474C00130504C03EC66482EF004E
:100FB000501585454145EF00504989674C0037156C
:100FC00001407C824AC626C4EF00B0138545130554
:100FD0000002EF0090478567938707F04C001305E8
:100FE00004407C824AC626C4EF00B0118545130533
:100FF0000004EF009045372501409D674C00130524
:1010000005807C824AC626C4EF00B00F1305048019
:1010100005468945EF00101C13050440054693055D
:101020000040EF00301B856505469385058013055C
:101030000440EF00301A41016FF0CFA19307100474
:10104000631AF500938781809A2383D6418036976F
:101050009AA3828093073005631BF50093878180F4
:101060009A2383D64180158FE344E0FE8280930764
:10107000D004631EF500938741809A238966938686
:10108000F670E3E5E6FEA9463307D702D1B793072A
:101090004004631CF500938741809A238546E3F75B
:1010A000E6FCA9463357D70265B793074005E31F0F
:1010B000F5FAEFF2EF971305401FEFF06FC903D574
:1010C0008180EF00D06CEFF06FBC6FF0AF98EFF263
:1010D0002F9605C12A841305401FEFF02FC403D5B6
:1010E00081809307A005330585023345F502EF00A3
:1010F000106AEFF0AFB96FF0EF95EFF26F9305C1A3
:101100002A841305401FEFF0EFBA03D561809307DF
:101110004006330585023345F502EF005067EFF0D6
:10112000EFB66FF02F93930790046316F500054711
:101130002395E18282809307F0046314F5002395E0
:1011400001828280EFF24F8C130101C00945EF004C
:10115000D00BEF00105E716513050520EF0090665F
:1011600083A50181377500001305C59EEF00F0705F
:10117000EFF01FB4EFF0BFAB3725004005469305F5
:10118000000C130505C0EF009058EFF0CFEDC165DE
:10119000FD150145EFF08FE3B77600009386C69FFB
:1011A00013060002814513052003EFF0DF9B1305B2
:1011B0004006EF00D05D3133553B05468965371554
:1011C0000140EF0030011305803EEF00505CB7791D
:1011D0000000B77A00000D6BB77B0000377C000081
:1011E00013050019EF00B05AC165938505800145CC
:1011F000EFF0CFDD03D78180938689A04146930528
:1012000000027945EFF03F9603D7418041469305B0
:1012100000039386CAA17945EFF0FF94EFF01FBF5A
:1012200083574B672A841306E03F8145130521004D
:101230007C80EFF0EF8205C8A2850A85EFF0BFB58C
:101240009305007E0145EFF06FD89305000D7945B9
:101250000A8793860BA34146EFF0FF908A8513051A
:101260004CA4EF009061EFF0DFC213140501418040
:101270002DCC0545EFF00FB12285913DEFF0FFBE7B
:1012800093140501C180FDD8EFF0FFC1137DF50F68
:1012900085471375F50F630AF5008947630DF50659
:1012A000377500001305C5A829A037750000130580
:1012B00045A5EFF0FFB8138501C4EFF0FFAB26851D
:1012C0002D3D1306803EEA8513050003EFF08F8D58
:1012D000130560FA018D42054181D53B0145EFF0D0
:1012E0006FAA1305401FEFF0EF9C03051100253D89
:1012F00083D7A182E38607EE03052100EFF00FAA52
:10130000030531001306803E8145EFF0AF890305E8
:1013100041002D33F1B537750000130505A751BF06
:1013200083D7A1829DC30545EFF0CFA51305401FCC
:10133000EFF00FA203D58180EF0070451305401F29
:10134000EFF04F970145EFF0EFA32145D12973004E
:10135000203083D7A1829DC30545EFF0AFA21305CE
:10136000401FEFF0AF9B03D58180EF005042130583
:10137000401FEFF02F940145EFF0CFA021654D21E4
:1013800073002030B71702409843B706FFF84111A9
:101390001367170098C3D84337060200758FD8C368
:1013A0009843B706F7FEFD16758F98C39843B706A6
:1013B000FCFFFD16758F98C3D843B70681FFFD1655
:1013C000758FD8C39843B70600ECFD16758F98C388
:1013D0003707FF0098C723A6070202C402C6984336
:1013E000C166558F98C3B716024005679C42F18FBE
:1013F0003EC6A24785073EC4B24781E7A247E397AE
:10140000E7FEB71702409C431397E70063570706B0
:1014100085473EC632478547631FF704B71702402A
:10142000D843B706C1FFFD16D8C3D843D8C3D843A5
:1014300013670740D8C3D843758FD8C3D843B706BE
:101440002900558FD8C39843B7060001558F98C31C
:10145000984393166700E3DD06FED843B7160240B3
:10146000719BD8C3D84313672700D8C32147DC42F8
:10147000B18BE39EE7FE4101828002C661BF01A0FD
:1014800001A001A001A001A001A001A001A001A054
:1014900001A001A001A001A001A001A001A001A044
:1014A00001A001A001A001A001A001A001A001A034
:1014B00001A001A001A001A001A001A001A001A024
:1014C00001A001A001A001A001A001A001A001A014
:1014D00001A001A001A001A001A001A001A001A004
:1014E00001A001A001A001A001A001A001A001A0F4
:1014F00001A001A001A001A001A001A001A001A0E4
:1015000001A001A001A001A001A001A001A001A0D3
:1015100001A001A001A001A001A001A001A001A0C3
:1015200001A001A001A001A001A001A001A001A0B3
:1015300001A001A001A001A001A001A097F1FF1F3F
:1015400093814133177100201301C1AB175500007F
:101550001305855F97F5FF1F9385C5AA13868182C2
:1015600063FAC5008322050023A0550011059105EB
:10157000E3EAC5FE13858182938581CA6377B5004E
:10158000232005001105E36DB5FEFD42739002BCFA
:10159000AD4273904280B76200009382820873A0CC
:1015A000023097F2FFFF938262A993E232007390B8
:1015B0005230EFF03FDD970200009382E2B8739063
:1015C0001234730020301C4141677917F98F1CC118
:1015D000232005002322050023240500B70702402D
:1015E00023260500138787006317E500D843136798
:1015F000F700D8C382801387C7016316E500D8437C
:101600001367070FFDB7138707036318E500D84377
:101610008566938606F0558FE9BF138747046315E7
:10162000E500D843BD66C5BF138787056316E5008F
:10163000D843B7060F00C5B71387C7066316E50082
:10164000D843B706F000C1BF138707086316E5004B
:10165000D843B706000FC1B7138787406319E50069
:1016600003A747401367F70023A2E7408280138750
:10167000C7416317E50003A747401367070FEDB79E
:1016800093870743631BF500B707024003A7474052
:101690008566938606F0558FC1BFB7070240138752
:1016A00047446316E50003A74740BD66EDB71387BF
:1016B00087456317E50003A74740B7060F00E1BF62
:1016C0001387C7466317E50003A74740B706F00036
:1016D000D9B7138707486317E50003A74740B70644
:1016E000000F55BF138707496319E50003A7474D4E
:1016F0001367F70023AAE74C82801387074A631712
:10170000E50003A7474D1367070FEDB71387074B96
:101710006319E50003A7474D8566938606F0558F4C
:10172000D1BF1387074CE319E5FC03A7474DBD66FE
:10173000FDB71C4161773D0794517D8F9C45D58F46
:101740009449D58FD449D58F944DD58FD44DD58F0D
:10175000D451D58F9455D58FD98F1CC1DC455CC130
:101760009C411CC5DC415CC582801C4189C593E756
:1017700017001CC1828041677917F98FDDBF4CC10A
:10178000828048414205418182809317350063D7AA
:101790000700B707024023A2A740828093172500C5
:1017A00063D70700B707024023AAA74C8280B70778
:1017B0000240C8C382805841032805004C453706C3
:1017C0000140930706403E979346F8FFB1C5832535
:1017D0000640F58D2320B640D043F18ED4C3144388
:1017E000B3E6060114C3184190479346F7FF758E80
:1017F00090C7D047F18ED4C7144541466399C600BF
:101800009447D98E94C7D447558FD8C78280B6974E
:101810009443558F98C382801C43F58F1CC38280EC
:10182000B707014023AAA740828014455C41584570
:101830000328C502D58FD98F1849370600A0D98F44
:101840005849D98F184DD98F584DD98F1851D98FE4
:101850005851D98F1855D98F1859B3E70701D98F27
:1018600018410A073A961CC2A1476396F6001C422B
:1018700093E707041CC254598C4E9C42CD8FCC4236
:101880009205CD8F8C46A205CD8FCC46C205CD8F5B
:101890008C4AD44AD205CD8FE206D58F5CC29167BF
:1018A0006319F802145D904E9C42D18FD04212060B
:1018B000D18F90462206D18F904AD44A5206E20632
:1018C000D18FD58FB70600A09386461036971CC3DC
:1018D0008280B70700A0938747103E97B707001094
:1018E000FD17F5B7B70700A00A053E951C4189C54D
:1018F00093E717001CC18280370710007917F98F12
:10190000D5BF9C4513F7070113F8F70001C7D8416D
:101910003368E8008E2113F7F50F39C3184181466B
:10192000854E3D4F930F800293028004214E3396E3
:10193000DE00B3F8C5006311160393982600331335
:101940001F011343F3FF3377E300B318180133E7A4
:10195000E800639FF70550C98506E39AC6FD18C1E4
:101960001307F00F6375B70454412146854E3D4F70
:10197000930F800293028004414EB398CE0033F758
:1019800015016392E8021317260001173313EF00C5
:101990001343F3FFB376D3003317E800D98E639D6A
:1019A000F701232A15010506E319C6FD54C18280FB
:1019B000E39457FA10C94DB7E39757FE2328150152
:1019C000DDB708456D8D3335A00082800CC982805B
:1019D0004CC9828019C20CC982804CC9828013F71D
:1019E000C50F93F73500B7050140BA9594458A07AE
:1019F0003D473317F7001347F7FF758F98C5984594
:101A00003315F500598D88C5828023A8A182828074
:101A1000938701839443182181E63C21920721A8F2
:101A200094430546639FC6023C211031920763141C
:101A3000D60093E707F8B7E600E093F7F70FBA96FA
:101A40002380F6408546935757003397E60054416C
:101A5000A5C2938707048A07B7E600E0B69798C344
:101A600082808C4389466391D50214313C216365A1
:101A7000D6008A06B6975DB79386E6038A06B697C0
:101A800093F7F70F920775B790438D46631CD60006
:101A900014313C216364D6008606E9BF9386C607ED
:101AA0008606F1BF94439147E39EF6F81C31BDB71B
:101AB000938707064DB7371702405C439146B18BB9
:101AC0006385D700A1466382D706B7177A0093874C
:101AD00007201CC1371602405C423707002013075D
:101AE00007009183BD8BBA9794231C41B3D7D700CD
:101AF0005CC15442A1829D8ABA969422B3D6D70083
:101B000014C55442AD829D8A36971823B3D7E70097
:101B10005CC55842398393763700138741813697E5
:101B20001823B3D7E7021CC982805C435843C166BF
:101B3000C983758FB7F6FF1F83A6C670BD8B890753
:101B40001396160163480600C54601466392D70204
:101B5000C94739A88946638FD702BD46638ED7022D
:101B6000C146638ED702C54601466393D700C1477D
:101B70001DEF3747024003270780418B05C7371702
:101B80007A0013070720B307F7021CC121D61C41B6
:101B9000858381B701466DBF0546B547D1BF014674
:101BA000BD47F9B737173D0013070790E9BFB715D1
:101BB0000240D8559316F700D85563DF0604118309
:101BC0003D8B9306170037177A001307072033570A
:101BD000D70218C1D455A182BD8A8DE2954633073C
:101BE000D702058318C137170240585714413D8B5F
:101BF000050733D7E60218C1184171B785456394CC
:101C0000B600E546E9BFBD456396B600D1463387C9
:101C1000E602C9BF8906E5BF3D8B9306170037175B
:101C20007A00130707203357D702F1B799C5371742
:101C300002405C4B5D8D48CB8280B7170240D84B89
:101C40001345F5FF798DC8CB828099C537170240BF
:101C50001C4F5D8D08CF8280B7170240984F134507
:101C6000F5FF798D88CF828099C5371702405C4F88
:101C70005D8D48CF8280B7170240D84F1345F5FFDE
:101C8000798DC8CF82801E2137370140930607C067
:101C9000C207C1836300D504B7060040630CD502B8
:101CA000938606406308D502B71600401386068067
:101CB0006302C502938606C0630ED5001307074072
:101CC000630AE50037570140930607C06304D50057
:101CD0006316E500BA2193F7F7F8D98F371700405C
:101CE000630CE500130707406308E50093F7F7CF9F
:101CF000FA21C207C183D98F1EA1DE215EB59E21C4
:101D00001EB5B7370140138707C0630EE500938700
:101D10000740630AF500B7570140138707C0630403
:101D2000E5006314F5009C251EB985475EA98280F5
:101D30001E3165771307F7CFC207C183BD9BC2076A
:101D4000C1831EB11E31562103D88500C2071396E8
:101D50000601162DC18393F7F7FD758F96214182F9
:101D6000A206558FB62142074183B3E606019206CB
:101D7000D58FB7360140C207138806C0C183630EF2
:101D8000050193860640630AD500B75601401388C3
:101D900006C063040501631ED502B62593F7F7F765
:101DA00003D8C5009206D58FD621C207C1839206FB
:101DB00093F7F7FBD58FFD769386F63FF18EF225EC
:101DC000C207C183336606010A06D18E1396060147
:101DD000418252A11AADFA211ABD1EB182801E2184
:101DE00089C593E717001EA18280C207C183F99BB2
:101DF000C207C183CDBF8357450491C52167D98FE1
:101E00002312F5048280C607C583DDBF1E2189C564
:101E100093E707081EA18280C207C18393F7F7F7F3
:101E2000C207C183C5BF1A2DFD779387F77FF98F4E
:101E3000A205CD8FC207C1831EAD8280EFE24FBFE6
:101E40001629F577FD17F58FF621DA257971D58FEB
:101E50001EA95625FD779387379FF58FD6212A84B3
:101E60002EC6D58F9625D58FB625D58F5EA55E2932
:101E7000C207C18393F7F7CFD98F5EA96808EFF047
:101E80009FC3B747014093870780B245631AF404A4
:101E9000A25756246547B387E702C206C186984118
:101EA00063D20604060752244206B3D7E70213079B
:101EB00040064186B3D6E702B3F7E70292066355C0
:101EC00006028E0793872703B3D7E70213F777003D
:101ED000B367D700C207C1831EA445616FE08FB707
:101EE000925745BF0A07C1B7920793872703B3D715
:101EF000E702BD8BD58FF9BF91C55E250967D98FE4
:101F00005EA582805A25F977FD17F98FD5BF5E2926
:101F100001C6DD8D4EA9828093C5F5FFFD8DDDBF25
:101F200093F5F51F4EA182800A216D8D3335A000F7
:101F3000828083A7018137177A0013070720B3D760
:101F4000E70293F7F70F238BF1821307803EB387E5
:101F5000E702239AF1828280B7F700E0D8438146F6
:101F6000799BD8C303C761833306A70290CBD4CB38
:101F700098431367070198C398431367170298C3E0
:101F8000D843058B75DF9843799B98C38280B7F758
:101F900000E0D8438146799BD8C303D741833306F9
:101FA000A70290CBD4CB98431367070198C39843FB
:101FB0001367170298C3D843058B75DF9843799B45
:101FC00098C38280EFE2CFA62A841165011185456E
:101FD0001105EFF09FC7930700207C823715014061
:101FE0008D473EC44C00E147130505803EC6EFF027
:101FF0005F9122C837440140B70708000C08130559
:1020000004803ECC02CA231E01000D3D8545130508
:102010000480DD3505616FE0EFA3EFE2CF9FB744A9
:102020000140AE89328901449384048063452401D0
:102030004A856FE08FA1930500042685F53565DD9F
:10204000B38789008385070026850504C205C18101
:10205000C13DE9BF138781811C43938681CA3E95A8
:10206000636BD500B78600209386068063E5A600E3
:1020700008C33E858280FD57EDBF39713EDA2ED20E
:1020800032D436D63AD842DC46DE9387C18122CCA0
:10209000804326CA06CEAA8409C41C4C99E3228533
:1020A000252A0C4454102686228536C60D27F24078
:1020B0006244D244216182801971A2DC86DEA6DAF4
:1020C0003284635B06009307B0081CC17D55F6504F
:1020D0006654D654096182803686930680202EC4C9
:1020E0002ECCF482814519C09305F4FFFD572EC80C
:1020F0002ECEBA862C00FC83AA841921FD57635585
:10210000F5009307B0089CC079D0A2472380070050
:102110007DBF9387C1813687B2862E86AA85884384
:1021200061BF411122C406C62A844EA572A5232090
:102130000500232205002324050023220506232869
:102140000500232A0500232C05002146814513059F
:10215000C505EFE0EF90971700009387A7CD5CD0FF
:10216000971700009387E7CF1CD497170000938739
:10217000C7D35CD497170000938727D600D01CD80C
:10218000B240224441018280971500009385650981
:10219000A9A2411126C2130680069384F5FFB384D9
:1021A000C4024AC02E8922C406C693854407592A10
:1021B0002A8401CD2320050023222501310508C4EE
:1021C000138684068145EFE0AF892285B240224420
:1021D00092440249410182801C4DADE3411106C683
:1021E00022C497070000938767FA1CD59387018262
:1021F0009C43232405042326050423280504631493
:10220000F50085471CCD2A841D2848C02285052855
:1022100008C422852D2048C4484001469145113705
:1022200008440546A545F53D48440946C945D53D00
:1022300085471CCCB24022444101828082804111FA
:102240009387018226C284434AC006C69C4C22C49E
:102250002A8999E326854937938484048044DC40A5
:10226000FD1763D607009C40B9CF8440C5BF031754
:10227000C40039E7C1778507232204062320040020
:1022800023220400232404005CC423280400232AFE
:102290000400232C0400214681451305C405EFD01A
:1022A0003FFC232A0402232C0402232404042326B3
:1022B00004042285B24022449244024941018280B2
:1022C0001304840671BF91454A85E13588C051FDEC
:1022D000B1472320F9000144E9BF797122D44AD0E3
:1022E00052CC56CA5AC85EC606D626D24ECE2A8AC6
:1022F000AE8A130485040149054BFD5B09ECB2501D
:1023000022544A8592540259F249624AD24A424BB7
:10231000B24B45618280044483294400FD1963D493
:1023200009000040E1BFDE24637BFB008397E400EB
:1023300063877701A6855285829A3369A9009384C1
:102340008406E9BF011126CA93843500F19806CEB0
:1023500022CC4AC84EC6A104B14763F5F404B14487
:1023600063E4B4042A89EF1020149387818398438F
:102370003A8429E49387C1839C4399E781454A8540
:10238000EF00702823AEA182A6854A85EF00B02712
:10239000FD5963193507B1472320F9004A85EF102D
:1023A000C01029A0E3DE04FAB1471CC10145F24088
:1023B0006244D2444249B249056182801C40858F03
:1023C00063CF0702AD4663F6F6001CC03E9404C01E
:1023D00031A05C406313870223ACF1824A85EF1081
:1023E000C00C1305B4009307440061993307F5400E
:1023F0005DDF3A94898F1CC05DBF5CC3C5B722877F
:10240000404085BF130435007198E30285FCB30595
:10241000A4404A85EF00301FE31B35FBADBF01111F
:102420004AC803A9850022CC52C45AC006CE26CA87
:102430004EC656C22E84328B368A63E82609DE25C4
:1024400013F7074849C304408C495848AA8AB389FE
:10245000B4408D44B384E4020947B3C4E402138753
:1024600016004E9763F3E400BA8493F70740B5CFA4
:10247000A6855685C13D2A891DE1B14723A0FA00F2
:102480005E247D5593E707045EA4F2406244D24483
:102490004249B249224A924A024B056182800C4865
:1024A0004E86EF00F0705E2493F7F7B793E70708C6
:1024B0005EA42328240144C84E99B38434412320C8
:1024C000240104C4528963732A01528908404A8650
:1024D000DA85EF0010791C440145B38727411CC4FD
:1024E0001C403E99232024014DB726865685EF10C7
:1024F00020062A895DFD0C485685EF00307BB5BF6C
:10250000DE25717126D34AD14ECF06D722D552CDC2
:1025100056CB5AC95EC762C566C393F70708AA8936
:102520002E89B284B9C39C49A9E39305000436C639
:10253000EFF05FE12320A9002328A900B24615E1AE
:10254000B14723A0F9007D55BA502A549A540A592C
:10255000FA496A4ADA4A4A4BBA4B2A4C9A4C4D61BC
:10256000828093070004232AF90093070002A30C3A
:10257000F1029307000302DA230DF10236CE930B2A
:102580005002974A0000938A6A58054C294B2684CA
:102590001C2099C363987709B30C9440638D0C0099
:1025A000E6862686CA854E859D3DFD57630BF51848
:1025B000D256E69636DA1C2063850718FD57930439
:1025C000140002D002D63ED202D4A301010682DC5E
:1025D0008C2015465685EF00305C1384140082571A
:1025E00021E513F7070109C713070002A301E1065C
:1025F00013F7870009C71307B002A301E10694206F
:102600001307A002638AE602B25726848146254654
:10261000182093051400130707FD6372E6068DC6A4
:102620003ED61DA00504ADB7330555413315AC00AA
:10263000C98F3ED0A28469BF7247930647001843F2
:1026400036CE634707023AD618209307E002631D8F
:10265000F70418309307A002631BF702F24709043E
:10266000138747009C433ACE63C107023ED22DA890
:102670003307E04093E727003AD63ED0F1B7B3875F
:10268000670385462E84BA9761B7FD57C5B7050421
:1026900002D281468147254618209305140013076E
:1026A00007FD6376E606F9F20C200D46174500009B
:1026B00013054546EF00504E11CD97470000938714
:1026C00067451D8D93070004B397A70002550504C5
:1026D0005D8D2AD00C201946174500001305C5430F
:1026E00093041400230CB102EF00104B25C597E7AB
:1026F000FFFF9387279195E70257F247137707105B
:1027000009CF91073ECED257D2973EDA49B5B3876B
:10271000670385462E84BA9741B79D07E19BA107C1
:10272000D5B77808970600009386A6CF4A860C1086
:102730004E8597000000E7000000FD572A8AE31449
:10274000F5FC8357C9007D5593F70704E39E07DE28
:102750005255DDBB780897060000938686CC4A86E2
:102760000C104E850121D1BF1C46FD171CC663D934
:102770000700184E63C5E700A9476393F500B9AF9A
:102780001C422E851387170018C28CA3828001116A
:1027900022CC26CA4AC84EC652C406CE2A89AE8961
:1027A0003284B304D6007D5A63149400014501A815
:1027B0000C204E864A854D3F0504E31745FFF24045
:1027C0006244D2444249B249224A0561828035714D
:1027D00022CD26CB4AC94EC706CF52C556C35AC1D1
:1027E000DEDEE2DCE6DAAA89AE843289368409C507
:1027F0001C4D99E3EFF05F9E974700009387072DEC
:102800006398F40C83A44900DE24A18BE5C79C489F
:10281000F5C393070002A304F1029307000302D259
:102820002305F10222C6930B5002974A0000938AB7
:10283000EA2D054C294B4A841C2099C3639E770DD1
:10284000B30C2441638D0C00E6864A86A6854E852E
:102850003D3FFD576301F51E9256E69636D21C2089
:10286000638B071CFD571309140002C802CE3ECA31
:1028700002CCA309010482D483450900154656857C
:10288000EF00903113041900C24749E913F707011B
:1028900009C713070002A309E10413F7870009C75A
:1028A0001307B002A309E104834609001307A0023D
:1028B000638EE606F2474A84814625461820930532
:1028C0001400130707FD6376E60AADCA3ECEBDA02D
:1028D00097470000938787216395F40083A48900BC
:1028E00025B7974700009387671CE39FF4F083A404
:1028F000C90019BFA6854E85C12D01DD7D55FA4061
:102900006A44DA444A49BA492A4A9A4A0A4BF65B67
:10291000665CD65C0D618280050439BF3305554184
:102920003315AC00C98F3EC82289B9B73247930628
:102930004700184336C6634707023ACE182093076C
:10294000E002631DF70418309307A002631BF7022F
:10295000B2470904138747009C433AC663C1070284
:102960003ECA2DA83307E04093E727003ACE3EC881
:10297000F1B7B387670385462E84BA9781B7FD57B1
:10298000C5B7050402CA814681472546182093052C
:102990001400130707FD6376E606F9F20C200D46D6
:1029A0001745000013050517EF00101F11CD9747BD
:1029B0000000938727161D8D93070004B397A70087
:1029C000424505045D8D2AC80C20194617450000B4
:1029D00013058514130914002304B102EF00D01B62
:1029E00035C197D7FFFF9387E76195E74247B24725
:1029F0001377071009CF91073EC69257D2973ED260
:102A00001DBDB387670385462E84BA9741B79D07DE
:102A1000E19BA107D5B7780097060000938666D79B
:102A200026860C084E8597000000E7000000FD5741
:102A30002A8AE314F5FCDE2493F70704E39007ECFD
:102A4000125575BD780097060000938686D42686B9
:102A50000C084E85012AE1BF797156CA9C49BA8A91
:102A6000984522D426D24ECE52CC06D64AD05AC849
:102A70005EC6AA892E84B284368A63D3E700BA87F9
:102A80009CC00347340419C385079CC01C4093F7BE
:102A9000070281C79C4089079CC003290400137961
:102AA0006900631A0900130B9401FD5B5C449840B4
:102AB000998F634CF9041C408346340493F7070252
:102AC000B336D000A5EB13063404D2854E85829A26
:102AD000FD576303F5041C4011469840998B5444FC
:102AE00081446397C700B384E64063D30400814404
:102AF0001C4418486354F700998FBE940149690437
:102B00007D5B63982405014509A885465A86D285D0
:102B10004E85829A631E75017D55B250225492549F
:102B20000259F249624AD24A424BB24B4561828015
:102B30000509ADBF3307D40013060003A301C70482
:102B40000347540493871600A2978906A381E704DC
:102B50009DBF85462286D2854E85829AE30E65FB0F
:102B6000050945B7797122D426D24AD04ECE06D671
:102B700052CC56CA5AC8B689942D9307900632890A
:102B8000AA842E8413863504638DF60263E2D70689
:102B9000930780056386F61863EDD700638E0620E1
:102BA00093073004638EF60A930A24042301D404A5
:102BB000C9A0930730066385F60A93074006E3959C
:102BC000F6FE1C40084393F6070893054500C5C66A
:102BD0001C410CC363D807001307D002B307F040B1
:102BE000A301E40497460000938686F3294765A86D
:102BF000930700076382F61663E5D7029307E006A2
:102C00006389F6189307F006E390F6FA0C401C432C
:102C100013F80508138547006307080608C39C439B
:102C200085A893075007E383F6FE9307800763891F
:102C3000F61293073007E399F6F61C43D04181451D
:102C40009386470014C383AA07005685B12701C5A0
:102C50003305554148C05C401CC8A301040461A869
:102C60001C43930A2404938647009C4314C3230106
:102C7000F4048547D5B793F607041C410CC3B9DAB1
:102C8000C207C18781BF93F5050408C3C9D99E2334
:102C90001307F0066387E60E97460000938646E822
:102CA0002947A30104044C400CC463C50500084037
:102CB0006D9908C099E3B28A89CDB28AB3F5E7026B
:102CC000FD1AB6958C212380BA00B3D5E70263F0D4
:102CD000E70CA147631EF7001C40858B91CB584041
:102CE0001C4863C7E70093070003A38FFAFEFD1A91
:102CF0003306564110C84E87CA867000A2852685C5
:102D0000EFF09FD57D5A631D450B7D55B25022547F
:102D100092540259F249624AD24A424B456182803A
:102D2000A382D50497460000938686DF0C400843B3
:102D300013F805081C411105630D080208C313F7B9
:102D4000150001C793E505020CC04147B9FB0C40D3
:102D500093F5F5FD0CC0B1B79C4193E707029CC108
:102D600093078007A302F40497460000938686DC4D
:102D700075BF13F8050408C3E30308FCC207C18349
:102D80007DBF974600009386A6D9214719BFAE871D
:102D900035B794411C43CC4913F806081385470006
:102DA0006306080008C39C438CC339A008C393F68C
:102DB00006049C43F5DA8EA323280400B28A25BFBB
:102DC00014485686CA8526858299E30045F51C403D
:102DD000898B8DE7B2474844E35AF5F23E853DB70B
:102DE00085465686CA8526858299E30065F3050ADD
:102DF0005C443247998FE345FAFEE9BF014A930AE2
:102E000094017D5BF5B7411122C42A842E8523A24B
:102E100001CA06C6EFF00FA4FD576317F5009387AC
:102E200041CA9C4391C31CC0B240224441018280EC
:102E3000411122C42E848395E50006C6EF00A076DA
:102E4000634905007C48AA977CC8B24022444101EE
:102E500082805E247D777D17F98F5EA4FDB7DE2525
:102E6000011122CC26CA4AC84EC606CE93F70710D7
:102E7000AA842E843289B68991C78395E500894654
:102E8000014611215E247D777D17F98F5EA483159D
:102E9000E4006244F240CE864A86B2494249268521
:102EA000D2440561DDA8411122C42E848395E5003A
:102EB00006C6D12EFD575A24631AF500FD77FD177B
:102EC000F98F5EA4B2402244410182808567D98F88
:102ED0005EA468C8C5BF8395E500F5A2011122CCA8
:102EE00026CA4AC806CE4EC6AA842E89328409C58F
:102EF0001C4D99E3EFF04FAE97470000938707BD55
:102F00006317F406C0401C4C1CC45E24A18BC1C3D3
:102F10001C48B5CF1C4808409379F90F1379F90F75
:102F20001D8D5C486346F500A2852685CD2C25E5E0
:102F30001C440505FD171CC41C401387170018C04E
:102F4000238037015C486388A7005E24858B81CB92
:102F5000A9476316F900A2852685D1240DEDF2401C
:102F600062444A85D2444249B2490561828097470A
:102F700000009387A7B76314F400804469B79747AC
:102F800000009387A7B2E310F4F8C044ADBFA28558
:102F900026851D2841D17D59D9B7411122C42A84E3
:102FA0002E85B285368623A201CA06C6EFF0EF86CB
:102FB000FD576317F500938741CA9C4391C31CC01A
:102FC000B24022444101828041119387C18126C2CF
:102FD000844322C44AC006C62A892E8491C49C4CCC
:102FE00081E72685EFF04F9F97470000938707AE54
:102FF000631BF402C0400317C40093170701C18389
:1030000093F68700ADEA93F6070195EEA5472320D6
:10301000F900136707045AA47D55B2402244924434
:1030200002494101828097470000938727AC6314CF
:10303000F4008044C9B797470000938727A7E31C93
:10304000F4FAC0444DBF918B9DC34C5889C9930776
:1030500044046384F5004A859129232A04025E24EE
:103060002322040093F7B7FD5EA41C481CC05E2415
:1030700093E787005EA41C4899EB5E2413070020A9
:1030800093F707286385E700A2854A85B52C5E245F
:1030900013F717001DC35C4823240400B307F04056
:1030A0001CCC1C480145B5FB8317C40013F7070867
:1030B0002DD793E707045EA485B7898B014791E379
:1030C000584818C4F9BF411122C42A842E8523A26E
:1030D00001CA06C69523FD576317F500938741CAB9
:1030E0009C4391C31CC0B240224441018280DE2532
:1030F000011122CC26CA06CE4AC84EC613F7870055
:10310000AA842E8479EBD841634DE000B841634A2C
:10311000E0000145F2406244D2444249B2490561AF
:10312000828058547DD703A904009396370123A0C9
:10313000040063DB060670485E24918B99C75C40EF
:103140001D8E5C5899C33C401D8E5C540C508146CA
:1031500026858297FD575A24631DF5009440F54754
:1031600063E8D706B70740208507B3D7D700858B1C
:10317000A5C31C48232204001CC09317370163D841
:103180000700FD576314F5009C4091E368C84C5854
:1031900023A02401BDDD930744046384F500268544
:1031A0003126232A0402B5B70C50014685462685F0
:1031B0000297FD572A86E311F5F89C40B5DF754765
:1031C0006385E70059476393E70423A0240191B77F
:1031D000136707045AA47D5535BF83A90501E38A07
:1031E00009F203A905008D8B23A03501330939416C
:1031F000014791E3D84918C4E35D20F11C540C50F9
:10320000CA864E86268582976347A0005E2493E790
:1032100007045EA4C9B7AA993309A940F1BF9C4924
:10322000ADC3011122CC06CE2A8419C51C4D89E7F5
:103230002EC6EFE07FFAB2459747000093870789D3
:10324000639CF5004C408397C5009DC7228562446E
:10325000F24005616FF0BFE9974700009387078947
:103260006394F5000C44C5B7974700009387078423
:10327000E39BF5FC4C44C1BFF2406244014505614B
:10328000828001458280411122C42A842E85B28524
:10329000368623A201CA06C6D126FD576317F5005C
:1032A000938741CA9C4391C31CC0B2402244410150
:1032B00082801971A6DAAE848395E500A2DC86DEF1
:1032C000328463DB0500DE2423A0060093F70708A1
:1032D0009DE39307004015A0300836C6DD2CB246AA
:1032E000E34305FE7247BD67F98F7977BA9793B7C5
:1032F00017009CC2F9BF930700041CC0F650665427
:10330000D654014509618280DE25011122CC06CE0A
:1033100026CA4AC8898B2E8489CF930774041CC09F
:103320001CC885475CC8F2406244D24442490561EA
:10333000828074003000AA84AD3FA2452A89268588
:10334000EFF04F8019E98317C40013F7072061FFDE
:10335000F19B93E727005EA4C9B797F7FFFF938718
:10336000E7E29CD45E2408C008C893E707085EA47F
:10337000A2475CC8B24799CB8315E4002685BD2CD3
:1033800011C55E24F19B93E717005EA45E243369A8
:10339000F9002316240141BF93F5F50F2A96631413
:1033A000C500014582801C21E38EB7FE0505C5BF1F
:1033B000B3C7A5008D8B3307C50081E78D4763ED4B
:1033C000C700AA87637EE508942185078505A38F3A
:1033D000D7FEE3EBE7FE828093763500AA8789CAA1
:1033E000942185078505A38FD7FE93F63700C5BFC7
:1033F0009376C7FF138606FE63F0C70683A3050016
:1034000083A2450083AF850003AFC50083AE0501ED
:1034100003AE450103A3850183A8C5019385450239
:1034200023A0770003A8C5FF23A2570023A4F70118
:1034300023A6E70123A8D70123AAC70123AC67006D
:1034400023AE17019387470223AE07FF75B790415C
:103450009107910523AEC7FEE3EBD7FEE3E6E7F65F
:10346000828063F1A504B386C500637DD5029345D0
:10347000F6FF8147FD176393F50082803387F600DE
:10348000034807003387C7002A9723000701DDB7E9
:103490003387F50014233307F500850714A3E319D8
:1034A000F6FE82808147E5BF82808280CDC183A7FE
:1034B000C5FF411122C406C626C21384C5FF63D3CB
:1034C00007003E94AA84CD37938781839C4399EB70
:1034D0002322040023AC81822244B24026859244F8
:1034E0004101E1B7637EF40014403307D4006396D2
:1034F000E7009843DC43369718C05CC0E1BFBA8749
:10350000D84319C3E37DE4FE94433386D700631F99
:1035100086001040B29694C33386D700E31EC7FAE4
:1035200010435843B29694C3D8C37DB76375C400A3
:10353000B1479CC055B71040B306C4006316D7000E
:1035400014435843B29614C058C0C0C371B78280A8
:1035500081E5B2856FE01FDF011122CC06CE26CABD
:103560004AC84EC6328419EA91370149F240624492
:103570004A85D2444249B24905618280AE84AA8913
:1035800055202689E37485FEA2854E85EFE09FDBFA
:103590002A8969DDA6852286EFF09FE1A6854E8502
:1035A000EFF0DFF0E1B7411122C42A842E85B28505
:1035B000368623A201CA06C64528FD576317F500C3
:1035C000938741CA9C4391C31CC0B240224441012D
:1035D0008280411122C42A842E85B28523A201CA89
:1035E00006C68D20FD576317F500938741CA9C439B
:1035F00091C31CC0B240224441018280411122C4C7
:103600002A842E8523A201CA06C69920FD57631776
:10361000F500938741CA9C4391C31CC0B240224429
:103620004101828083A7C5FF1385C7FF63D50700CB
:10363000AA959C413E9582809307800523A2F1CAFA
:103640007D5582809307800523A2F1CA7D55828033
:103650009307800523A2F1CA014582809307800564
:1036600023A2F1CA7D5582809307800523A2F1CA67
:103670007D55828000000000000000000000000076
:10368000000000000000000000000000000000003A
:10369000000000000000000000000000000000002A
:1036A000000000000000000000000000000000001A
:1036B000000000000000000000000000000000000A
:103A800000000000000000101010101010000010C6
:103A90001000000000000028282828000000000076
:103AA000000000000000001212167F2424FE2848A7
:103AB00048000000000008083E4948683E0B0949DC
:103AC0003E080800000000609090620C3046090932
:103AD000060000000000001C2020303049454562EF
:103AE0003D00000000000010101010000000000059
:103AF0000000000000000C08081010101010100842
:103B00000804000000003010100808080808081019
:103B10001030000000000008493E1C6B0800000047
:103B2000000000000000000000101010FE10101037
:103B3000000000000000000000000000000000186D
:103B400018102000000000000000000000380000F5
:103B5000000000000000000000000000000000184D
:103B600018000000000000020404040808101020DF
:103B7000202040000000001C2241414941414122D7
:103B80001C000000000000182808080808080808A1
:103B90003E0000000000003E43010102060C102020
:103BA0007F0000000000003E4101031C03010143AF
:103BB0003E000000000000060A1A1222427F0202A4
:103BC000020000000000007E40407C4201010142F2
:103BD0003C0000000000001E3160405E6341412354
:103BE0001E0000000000007F0302040408081010FB
:103BF000200000000000003E4141413E634141631E
:103C00003E0000000000003C624141633D0103466C
:103C10003C00000000000000000018180000001820
:103C20001800000000000000000018180000001834
:103C3000181020000000000000010E3840380E016E
:103C4000000000000000000000007F00007F000076
:103C500000000000000000000040380E010E384057
:103C6000000000000000003844040C181010001080
:103C7000100000000000001E332147494949494710
:103C800020300E000000000814141414223E2241BB
:103C9000410000000000007E4141417E434141431C
:103CA0007E0000000000001E2140404040404021B6
:103CB0001E0000000000007C424141414141414260
:103CC0007C0000000000007F4040407F40404040BA
:103CD0007F0000000000007F4040407F40404040A7
:103CE000400000000000001E2140404043414121AF
:103CF0001E000000000000414141417F414141411F
:103D0000410000000000007C101010101010101076
:103D10007C0000000000001C0404040404040444AB
:103D20003800000000000042444850707848444683
:103D30004200000000000040404040404040404001
:103D40007F00000000000063635555554941414123
:103D5000410000000000006161515149494545435F
:103D6000430000000000001C22414141414141222A
:103D70001C0000000000007E434141437E40404063
:103D8000400000000000001C22414141414141220D
:103D90001E0602000000007E434141437C42414137
:103DA000400000000000001E614040300E01014351
:103DB0003E000000000000FE101010101010101047
:103DC0001000000000000041414141414141416378
:103DD0003E0000000000004141222222141414146D
:103DE000080000000000008181815A5A5A66666608
:103DF000660000000000004122141408141422225E
:103E000041000000000000824444283810101010C7
:103E1000100000000000007F03020408081020606A
:103E20007F00000000001C10101010101010101067
:103E3000101C000000000040202020101008080482
:103E400004040200000038080808080808080808E8
:103E500008380000000000102844C60000000000E0
:103E60000000000000000000000000000000000052
:103E7000000000FF003010080000000000000000FB
:103E80000000000000000000001C22023E424246EA
:103E90003A00000000004040407C644242424264DC
:103EA0005C00000000000000001C22404040402256
:103EB0001C00000000000202023E2642424242264E
:103EC0003A00000000000000003C26427E404022F4
:103ED0001C00000000000C10107C101010101010BE
:103EE0001000000000000000003A26424242422634
:103EF0003A02221C00004040405C62424242424280
:103F0000420000000000101000701010101010107F
:103F10007C000000000008080038080808080808AD
:103F20000808087000004040404448507048484429
:103F3000420000000000701010101010101010103F
:103F40000E00000000000000007E4949494949492F
:103F50004900000000000000005C62424242424210
:103F60004200000000000000003C664242424266FF
:103F70003C00000000000000005C644242424264D9
:103F80007C40404000000000003A26424242422667
:103F90003A02020200000000003C322020202020D3
:103FA0002000000000000000003C4240700E024271
:103FB0003C00000000000010107E101010101010C7
:103FC0000E00000000000000004242424242424611
:103FD0003A00000000000000004242242424181887
:103FE00018000000000000000081815A5A5A5A242B
:103FF00024000000000000000042241818182424A7
:10400000420000000000000000422224241418187E
:104010000808103000000000007E02040810204054
:104020007E00000000000C10101010106010101026
:1040300010100C00000010101010101010101010B4
:104040001010101000006010101010100C10101044
:1040500010106000000000000000000000000000E0
:104060000000000000000000000000000000000050
:104070000000000000000000000000000000000040
:104080000000000000000000000000000600060024
:1040900006000600060006000600060006000600F0
:1040A00000000000060006000600000000000000FE
:1040B00000000000000000000000000019801980CE
:1040C000198019801980198000000000000000008C
:1040D00000000000000000000000000000000000E0
:1040E0000000000000000000000000000660044026
:1040F0000CC00CC07FF07FF0088019801980FFE0B1
:10410000FFE0330033002200220000000000000026
:1041100000000000000000000000020002000F800C
:104120001FC03A40320032003A001F0007C002E0D0
:104130000260026022E03FC01F8002000200020015
:1041400000000000000000000000000078004800AF
:10415000CC00CC00CC00484079C00E0073C00240B7
:10416000066006600660024003C000000000000018
:104170000000000000000000000000000F801F8011
:104180001800180018000C001E003630633063B0B1
:1041900061A060E030C03F600E70000000000000D1
:1041A0000000000000000000000000000600060003
:1041B00006000600060006000000000000000000E7
:1041C00000000000000000000000000000000000EF
:1041D00000000000000000000000010002000200DA
:1041E0000600060004000C000C000C000C000C0083
:1041F0000C000C0004000600060002000200010092
:10420000000000000000000000000800040004009E
:104210000600060002000300030003000300030081
:10422000030003000200060006000400040008006A
:104230000000000000000000000000000400040076
:10424000444035800E000E003580444004000400D8
:10425000000000000000000000000000000000005E
:10426000000000000000000000000000000000004E
:10427000060006000600060006007FE07FE006005C
:104280000600060006000600000000000000000016
:10429000000000000000000000000000000000001E
:1042A000000000000000000000000000000000000E
:1042B0000000000006000600060006000C000C00CE
:1042C00000000000000000000000000000000000EE
:1042D0000000000000000000000000001F001F00A0
:1042E00000000000000000000000000000000000CE
:1042F00000000000000000000000000000000000BE
:1043000000000000000000000000000000000000AD
:10431000000000000600060006000000000000008B
:10432000000000000000000000000000006000C06D
:1043300000C00180018003000300060006000600A3
:104340000C000C0018001800300030006000000065
:104350000000000000000000000000001E003F8080
:10436000318071C060C060C066C066C060C060C09F
:1043700060C071C031803F800E000000000000006E
:1043800000000000000000000000000007001F0007
:104390001B000300030003000300030003000300ED
:1043A0000300030003001FE01FE000000000000006
:1043B0000000000000000000000000003F007F80BF
:1043C00041C000C000C000C001C001800300060061
:1043D0000C00180030007FC07FC00000000000000B
:1043E0000000000000000000000000003F007F808F
:1043F00041C000C000C001C00F800F80018000C01C
:1044000000C000C041C07F803F00000000000000ED
:104410000000000000000000000000000380038096
:10442000078005800D80098019803180318061808E
:104430007FE07FE00180018001800000000000003B
:104440000000000000000000000000003F803F80EE
:104450003000300030003F003F8021C000C000C06D
:1044600000C000C041807F803E00000000000000CE
:104470000000000000000000000000000F001F808E
:1044800038803000700060006F007F8071C060C0B5
:1044900060C060C031C03F801F000000000000000D
:1044A0000000000000000000000000007FC07FC08E
:1044B0000180018001800300030003000600060064
:1044C00006000C000C000C001800000000000000AA
:1044D0000000000000000000000000001F003F80FE
:1044E00071C060C060C031801F003F80318060C0FB
:1044F00060C060C071C03F801F000000000000006D
:104500000000000000000000000000001F003F80CD
:10451000718060C060C060C071C03FC01EC000C07C
:1045200000C0018023803F001E000000000000004A
:10453000000000000000000000000000000000007B
:104540000000000006000600060000000000000059
:104550000000000006000600060000000000000049
:10456000000000000000000000000000000000004B
:104570000000000006000600060000000000000029
:104580000000000006000600060006000C000C00FB
:10459000000000000000000000000000000000001B
:1045A0000000002001E007801E00700070001E0067
:1045B000078001E000200000000000000000000073
:1045C00000000000000000000000000000000000EB
:1045D00000000000000000007FE07FE0000000001D
:1045E0007FE07FE00000000000000000000000000D
:1045F00000000000000000000000000000000000BB
:104600000000400078001E00078000E000E0078006
:104610001E007800400000000000000000000000C4
:104620000000000000000000000000000F801FC01C
:104630001060006000E001C0038006000600060074
:104640000000000006000600060000000000000058
:1046500000000000000000000000000000000780D3
:1046600018C03060306023E062606660666066603B
:1046700066606660626033E0300018001C000780EE
:10468000000000000000000000000000060006001E
:104690000F000F000F001F801980198019803FC084
:1046A0003FC030C030C060606060000000000000AB
:1046B0000000000000000000000000007F007F807C
:1046C00061C060C060C061C07F807F8060C060608A
:1046D0006060606060E07FC07F80000000000000DC
:1046E00000000000000000000000000007C01FE004
:1046F00038203000600060006000600060006000F2
:104700006000300038201FE007C0000000000000FB
:104710000000000000000000000000007E007F801C
:1047200061C060C0606060606060606060606060C8
:10473000606060C061C07F807E00000000000000FB
:104740000000000000000000000000007FE07FE0AB
:1047500060006000600060007FE07FE0600060005B
:104760006000600060007FE07FE00000000000006B
:104770000000000000000000000000007FE07FE07B
:1047800060006000600060007FC07FC0600060006B
:104790006000600060006000600000000000000039
:1047A0000000000000000000000000000F801FC09B
:1047B0003840300060006000600061E061E06060EF
:1047C0006060306038601FE00F8000000000000073
:1047D0000000000000000000000000006060606059
:1047E00060606060606060607FE07FE0606060608B
:1047F00060606060606060606060000000000000F9
:104800000000000000000000000000003FC03FC0AA
:104810000600060006000600060006000600060068
:104820000600060006003FC03FC000000000000078
:104830000000000000000000000000001F801F803A
:104840000180018001800180018001800180018060
:104850000180018043807F003E00000000000000D6
:10486000000000000000000000000000606060C068
:104870006180630066006C007C007E00760063004F
:104880006380618060C060E0606000000000000044
:104890000000000000000000000000006000600058
:1048A0006000600060006000600060006000600008
:1048B0006000600060007FE07FE00000000000001A
:1048C00000000000000000000000000070E070E048
:1048D00070E079E0696069606F606660666066607C
:1048E0006060606060606060606000000000000008
:1048F0000000000000000000000000007060706018
:10490000786078606C606C60646066606260636050
:10491000636061E061E060E060E0000000000000D2
:104920000000000000000000000000000F003FC079
:1049300030C070E0606060606060606060606060B7
:10494000606070E030C03FC00F0000000000000059
:104950000000000000000000000000007F807FC019
:1049600060E060606060606060E07FC07F806000E9
:104970006000600060006000600000000000000057
:104980000000000000000000000000000F003FC019
:1049900030C070E060606060606060606060606057
:1049A000606070E030C01F800F00018000C0008098
:1049B0000000000000000000000000007F007FC039
:1049C00060E060606060606060C07FC07F8061C0E8
:1049D00060C0606060606030603000000000000017
:1049E0000000000000000000000000001F803FC029
:1049F00070406000600070003E001F8001C00060D9
:104A00000060006040E07FC03F80000000000000C8
:104A1000000000000000000000000000FFF0FFF0B8
:104A20000600060006000600060006000600060056
:104A30000600060006000600060000000000000058
:104A400000000000000000000000000060606060E6
:104A50006060606060606060606060606060606056
:104A60006060606070E03FC01F80000000000000D8
:104A700000000000000000000000000060606060B6
:104A800030C030C030C030C01980198019801F80FC
:104A90000F000F000F0006000600000000000000DD
:104AA000000000000000000000000000C030C03026
:104AB000C0306060666066606F606F60696069608A
:104AC00039C039C039C030C030C00000000000001B
:104AD00000000000000000000000000070E030C096
:104AE00039C019800F000F00060006000F000F00EC
:104AF0001B80198031C030C060E000000000000061
:104B0000000000000000000000000000E070606095
:104B100030C030C019801F800F000600060006005C
:104B20000600060006000600060000000000000067
:104B30000000000000000000000000007FE07FE0B7
:104B400000C001C001800300070006000E000C0039
:104B50001800380030007FE07FE000000000000017
:104B60000000000000000000000007800780060031
:104B70000600060006000600060006000600060005
:104B800006000600060006000600060007800780F3
:104B90000000000000000000000000006000300085
:104BA0003000180018000C000C000600060006007B
:104BB000030003000180018000C000C0006000000D
:104BC000000000000000000000000F000F000300C4
:104BD00003000300030003000300030003000300BD
:104BE0000300030003000300030003000F000F0095
:104BF00000000000000000000000000007000F801F
:104C00000D8018C03060603000000000000000001F
:104C10000000000000000000000000000000000094
:104C20000000000000000000000000000000000084
:104C30000000000000000000000000000000000074
:104C40000000000000000000000000000000000064
:104C5000FFF0FFF00000000018000C000600030049
:104C60000000000000000000000000000000000044
:104C70000000000000000000000000000000000034
:104C80000000000000000000000000000000000024
:104C9000000000001F003F8021C000C01FC03FC0B7
:104CA00070C060C061C07FC01CC000000000000078
:104CB00000000000000000000000600060006000D4
:104CC000600060006F007F80718060C060C060C065
:104CD00060C060C071807F806F0000000000000035
:104CE00000000000000000000000000000000000C4
:104CF000000000000F003F80308060006000600016
:104D00006000600030803F800F0000000000000065
:104D10000000000000000000000000C000C000C053
:104D200000C000C01EC03FC031C060C060C060C0D5
:104D300060C060C031C03FC01EC000000000000065
:104D40000000000000000000000000000000000063
:104D5000000000000F003F8031C060C07FC07FC0F6
:104D60006000600030403FC00F8000000000000085
:104D70000000000000000000000001E003E0060069
:104D8000060006003FE03FE00600060006000600C1
:104D900006000600060006000600000000000000F5
:104DA0000000000000000000000000000000000003
:104DB000000000001EC03FC031C060C060C060C0C5
:104DC00060C060C031C03FC01EC000C021C03F8075
:104DD0001F00000000000000000060006000600094
:104DE0006000600067007F8071C060C060C060C00C
:104DF00060C060C060C060C060C000000000000013
:104E00000000000000000000000006000600000096
:104E1000000000003E003E000600060006000600FE
:104E20000600060006007FE07FE0000000000000B2
:104E3000000000000000000000000300030000006C
:104E4000000000001F001F00030003000300030018
:104E500003000300030003000300030003003E00FF
:104E60003C000000000000000000600060006000E6
:104E70006000600061C0638067006E007C007C00A1
:104E8000760067006300618061C0000000000000E0
:104E900000000000000000000000FC00FC000C000E
:104EA0000C000C000C000C000C000C000C000C00A2
:104EB0000C000C000E0007C003C000000000000042
:104EC00000000000000000000000000000000000E2
:104ED000000000006DC07FE066606660666066602E
:104EE00066606660666066606660000000000000E4
:104EF00000000000000000000000000000000000B2
:104F00000000000067007F8071C060C060C060C0AA
:104F100060C060C060C060C060C0000000000000F1
:104F20000000000000000000000000000000000081
:104F3000000000001F003F80318060C060C060C082
:104F400060C060C031803F801F0000000000000092
:104F50000000000000000000000000000000000051
:104F6000000000006F007F80718060C060C060C082
:104F700060C060C071807F806F0060006000600072
:104F800060000000000000000000000000000000C1
:104F9000000000001EC03FC031C060C060C060C0E3
:104FA00060C060C031C03FC01EC000C000C000C0B3
:104FB00000C0000000000000000000000000000031
:104FC000000000000CE00DF00F100E000C000C00B3
:104FD0000C000C000C000C000C0000000000000095
:104FE00000000000000000000000000000000000C1
:104FF000000000001F803FC0604060007F001F80F5
:1050000001C000C041C07F803F00000000000000E0
:1050100000000000000000000000000000000C0084
:105020000C000C007FC07FC00C000C000C000C00BA
:105030000C000C000C000FC007C0000000000000B6
:105040000000000000000000000000000000000060
:105050000000000060C060C060C060C060C060C090
:1050600060C060C071C03FC01CC0000000000000F4
:105070000000000000000000000000000000000030
:105080000000000060C071C0318031803B801B0097
:105090001B001B000E000E000E00000000000000B0
:1050A0000000000000000000000000000000000000
:1050B00000000000C030C0306060666066606660FE
:1050C0003FC039C039C039C030C000000000000006
:1050D00000000000000000000000000000000000D0
:1050E0000000000071C031801B001F000E000E0088
:1050F0000E001F001B00318071C000000000000086
:10510000000000000000000000000000000000009F
:105110000000000060C03180318031801B001B0026
:105120001F000E000E0006000C000C000C003800E2
:105130003800000000000000000000000000000037
:10514000000000007FC07FC00380030007000E0046
:105150001C00180030007FC07FC00000000000006D
:105160000000000000000000000003C007C00600AF
:10517000060006000600060006003C003C000E008B
:1051800006000600060006000600060007C003C071
:1051900000000000000000000000060006000600FD
:1051A00006000600060006000600060006000600CF
:1051B00006000600060006000600060006000600BF
:1051C000060006000000000000003C003E00060053
:1051D0000600060006000600060003C003C0070024
:1051E0000600060006000600060006003E003C0021
:1051F00000000000000000000000000000000000AF
:10520000000000000000000000000000000000009E
:10521000000000000000000000000000000000008E
:10522000000000000000000000000000000000007E
:10523000000000000000000000000000000000006E
:1052400001C001C001C001C001C001C001C001C056
:1052500001C001C001C001C001C001C000000000C8
:10526000000001C001C001C00000000000000000FB
:10527000000000000000000000000000000000002E
:10528000063006300630063006300630063006306E
:10529000000000000000000000000000000000000E
:1052A00000000000000000000000000000000000FE
:1052B0000000000000000000000000000000018C61
:1052C000038C030C0318031803187FFF7FFF0630BD
:1052D00006300E300C700C60FFFEFFFE186018C028
:1052E00018C018C030C0318000000000000000006D
:1052F000000000000000000000000000000000802E
:105300000080008003F00FFC0E8C1C801C801C8031
:105310001C800E800FE003F800FC009E008E008EC3
:10532000008E109C1FF807F0008000800080008035
:10533000000000000000000000000000000000006D
:105340003C007E00E700C300C300C300E7007E1CF2
:105350003C7801C007003C7870FC01CE01860186D4
:10536000018601CE00FC0078000000000000000073
:10537000000000000000000000000000000000002D
:1053800007C00FE01E201C001C001C001E000E00A9
:105390000F001F003F8333C371E370E370F6707E2C
:1053A000783C3C3E1FEE07CF0000000000000000EC
:1053B00000000000000000000000000000000000ED
:1053C00001800180018001800180018001800180D5
:1053D00000000000000000000000000000000000CD
:1053E00000000000000000000000000000000000BD
:1053F000000000000000000000000000000000307D
:105400000060006000E000C001C001C001800380B6
:105410000380038003800380038003800380038074
:10542000018001C001C000C000E0006000600030E9
:105430000000000000000000000000000000060066
:10544000030003000380018001C001C000C000E030
:1054500000E000E000E000E000E000E000E000E04C
:1054600000C001C001C001800380030003000600EA
:10547000000000000000000000000000000000002C
:10548000018001802184399C0FF003C003C00FF01C
:10549000399C218401800180000000000000000090
:1054A00000000000000000000000000000000000FC
:1054B00000000000000000000000000000000000EC
:1054C00000000000000000000180018001800180D8
:1054D000018001807FFE7FFE0180018001800180CC
:1054E00001800180000000000000000000000000BA
:1054F00000000000000000000000000000000000AC
:10550000000000000000000000000000000000009B
:10551000000000000000000000000000000000008B
:1055200001C001C001C001C00180038003800300ED
:10553000000000000000000000000000000000006B
:10554000000000000000000000000000000000005B
:1055500000000000000007F007F00000000000005D
:10556000000000000000000000000000000000003B
:10557000000000000000000000000000000000002B
:10558000000000000000000000000000000000001B
:10559000000000000000000000000000000000000B
:1055A00003800380038003800000000000000000EF
:1055B00000000000000000000000000000000000EB
:1055C000001C0038003800700070007000E000E03F
:1055D00001C001C0038003800380070007000E00A4
:1055E0000E001C001C001C00380038007000000079
:1055F00000000000000000000000000000000000AB
:1056000003E00FF80E381C1C1C1C380E380E380E28
:1056100039CE39CE39CE380E380E380E380E1C1C25
:105620001C1C0E380FF803E0000000000000000012
:10563000000000000000000000000000000000006A
:1056400003E00FE00CE000E000E000E000E000E03C
:1056500000E000E000E000E000E000E000E000E04A
:1056600000E000E00FFE0FFE000000000000000060
:10567000000000000000000000000000000000002A
:105680000FE03FF8383C201E000E000E000E000E0A
:10569000001E003C007C00F800F001E003C00700A1
:1056A0000E001C003FFE3FFE000000000000000056
:1056B00000000000000000000000000000000000EA
:1056C00007F01FF8181C000E000E000E000E003C24
:1056D00007F007F0003C001C000E000E000E000E4C
:1056E000001E303C3FF80FE000000000000000000A
:1056F00000000000000000000000000000000000AA
:10570000007000F001F001F00370077006700C707B
:105710000C7018703870307060707FFE7FFE007003
:1057200000700070007000700000000000000000B9
:105730000000000000000000000000000000000069
:105740001FFC1FFC1C001C001C001C001FE01FF89D
:10575000103C001C000E000E000E000E000E000E8D
:10576000001C203C3FF81FE000000000000000008B
:105770000000000000000000000000000000000029
:1057800001F807FC0F041E001C001C00380039F053
:105790003BF83E3C3C1E380E380E380E380E180EC4
:1057A0001C1C0E3C0FF803F000000000000000007D
:1057B00000000000000000000000000000000000E9
:1057C0003FFE3FFE001E001C001C00380038003861
:1057D0000070007000F000E000E001E001C001C0D6
:1057E0000380038003800700000000000000000029
:1057F00000000000000000000000000000000000A9
:1058000007F01FFC1C1C380E380E380E380E1C1CFE
:1058100007F00FF81E3C1C1C380E380E380E380EE0
:105820003C1E1E3C0FF807F00000000000000000C6
:105830000000000000000000000000000000000068
:1058400007E00FF81E383C1C380C380E380E380EA6
:10585000380E3C1E1E3E0FEE07CE000E001C001C34
:10586000003C10781FF00FC0000000000000000096
:105870000000000000000000000000000000000028
:105880000000000000000000000000000380038012
:105890000380038000000000000000000000000002
:1058A00003800380038003800000000000000000EC
:1058B00000000000000000000000000000000000E8
:1058C00000000000000000000000000003800380D2
:1058D00003800380000000000000000000000000C2
:1058E0000380038003800380030007000700060095
:1058F00000000000000000000000000000000000A8
:1059000000000000000000000002001E007E01F800
:105910000FC03F00780078003F000FC001F8007E04
:10592000001E000200000000000000000000000057
:105930000000000000000000000000000000000067
:105940000000000000000000000000000000000057
:105950007FFE7FFE0000000000007FFE7FFE000053
:105960000000000000000000000000000000000037
:105970000000000000000000000000000000000027
:105980000000000000000000400078007E001F8042
:1059900003F000FC001E001E00FC03F01F807E00D0
:1059A000780040000000000000000000000000003F
:1059B00000000000000000000000000000000000E7
:1059C00003E00FF81C38101C001C003C003C007861
:1059D00000F001E003C00380038003800380000027
:1059E000000003800380038000000000000000002E
:1059F00000000000000000000000000000000000A7
:105A0000000001F807FC0E0E1C0618033003307B63
:105A100061FF618763036303630363036303618758
:105A200071FF307B300018001C000F0403FC00FCE9
:105A30000000000000000000000000000000000066
:105A400001C003E003E003E003E0077007700770A4
:105A50000F780E380E380E381FFC1FFC1C1C380E39
:105A6000380E380E780F70070000000000000000AC
:105A70000000000000000000000000000000000026
:105A80003FE03FF83838381C381C381C381C383890
:105A90003FF03FF0383C381C380E380E380E380EC8
:105AA000381E383C3FF83FE00000000000000000D6
:105AB00000000000000000000000000000000000E6
:105AC00001F807FC0F0C1E041C001C0038003800F5
:105AD0003800380038003800380038001C001C003E
:105AE0001E040F0C07FC01F800000000000000007D
:105AF00000000000000000000000000000000000A6
:105B00003FC03FF03878381C381C380C380E380E3F
:105B1000380E380E380E380E380E380E380C381C49
:105B2000381C38783FF03FC0000000000000000043
:105B30000000000000000000000000000000000065
:105B40001FFE1FFE1C001C001C001C001C001C0073
:105B50001FFC1FFC1C001C001C001C001C001C0067
:105B60001C001C001FFE1FFE0000000000000000C3
:105B70000000000000000000000000000000000025
:105B80001FFE1FFE1C001C001C001C001C001C0033
:105B90001FFC1FFC1C001C001C001C001C001C0027
:105BA0001C001C001C001C00000000000000000085
:105BB00000000000000000000000000000000000E5
:105BC00001F807FC0F0C1E041C001C0038003800F4
:105BD0003800387E387E380E380E380E1C0E1C0EFB
:105BE0001C0E0F1E07FE01F8000000000000000060
:105BF00000000000000000000000000000000000A5
:105C0000380E380E380E380E380E380E380E380E64
:105C10003FFE3FFE380E380E380E380E380E380E66
:105C2000380E380E380E380E00000000000000005C
:105C30000000000000000000000000000000000064
:105C40001FFC1FFC01C001C001C001C001C001C098
:105C500001C001C001C001C001C001C001C001C03C
:105C600001C001C01FFC1FFC00000000000000007C
:105C70000000000000000000000000000000000024
:105C800007F807F8003800380038003800380038C6
:105C90000038003800380038003800380038003844
:105CA000203830703FF00FC00000000000000000FE
:105CB00000000000000000000000000000000000E4
:105CC0003807380E381C3838387038E039C03B8017
:105CD0003F803FC03FC03DE038F038703878383CF6
:105CE000381C381E380F3807000000000000000084
:105CF00000000000000000000000000000000000A4
:105D00001C001C001C001C001C001C001C001C00B3
:105D10001C001C001C001C001C001C001C001C00A3
:105D20001C001C001FFE1FFE000000000000000001
:105D30000000000000000000000000000000000063
:105D4000781E781E7C3E7C3E7C3E766E766E766E4D
:105D5000724E73CE73CE718E718E700E700E700E89
:105D6000700E700E700E700E00000000000000003B
:105D70000000000000000000000000000000000023
:105D80003C0E3C0E3E0E3E0E3E0E3B0E3B0E3B8E40
:105D9000398E398E38CE38CE38EE386E386E383E81
:105DA000383E383E381E381E00000000000000005B
:105DB00000000000000000000000000000000000E3
:105DC00003E00FF80E381C1C1C1C380E380E380E61
:105DD000380E380E380E380E380E380E380E1C1CA1
:105DE0001C1C0E380FF803E000000000000000004B
:105DF00000000000000000000000000000000000A3
:105E00001FF01FFC1C1E1C0F1C071C071C071C0777
:105E10001C0F1C1E1FFC1FF01C001C001C001C0083
:105E20001C001C001C001C00000000000000000002
:105E30000000000000000000000000000000000062
:105E400003E00FF80E381C1C1C1C380E380E380EE0
:105E5000380E380E380E380E380E380E380E1C1C20
:105E60001C1C0E380FF803E000700038001C0010F6
:105E70000000000000000000000000000000000022
:105E80003FE03FF03878383C381C381C381C381C50
:105E9000381C38383FF03FE038F038783838383C34
